:020000040800F2
:10000000580B0020890100087F04000877040008CD
:100010007B0400080B030008CF210008000000004B
:10002000000000000000000000000000D9180008D7
:100030000F03000800000000890A00087D1A00086C
:10004000A3010008A3010008A3010008A301000800
:10005000A3010008A3010008A3010008A3010008F0
:10006000A3010008A3010008A3010008A3010008E0
:10007000A3010008A3010008A3010008A3010008D0
:10008000A3010008A3010008A3010008A3010008C0
:10009000A3010008A3010008A3010008A3010008B0
:1000A000A3010008A3010008A3010008A3010008A0
:1000B000A3010008A3010008A3010008A301000890
:1000C000A3010008A3010008A3010008A301000880
:1000D000A3010008291E0008A3010008C91E00088A
:1000E000A3010008A3010008A301000800F002F822
:1000F00000F03AF80AA090E8000C82448344AAF188
:100100000107DA4501D100F02FF8AFF2090EBAE885
:100110000F0013F0010F18BFFB1A43F0010318473B
:1001200094570000B4570000103A24BF78C878C133
:10013000FAD8520724BF30C830C144BF04680C60ED
:10014000704700000023002400250026103A28BF35
:1001500078C1FBD8520728BF30C148BF0B60704739
:100160001FB51FBD10B510BD00F09AF81146FFF77E
:10017000F7FF02F02FF800F0B8F803B4FFF7F2FF32
:1001800003BC00F0BBF8000009488047094800475D
:10019000FEE7FEE7FEE7FEE7FEE7FEE7FEE7FEE737
:1001A000FEE7FEE704480549054A064B7047000094
:1001B000811A0008ED00000858050020580B0020A7
:1001C000580700205807002040EA0103024630B5D6
:1001D0009B0710D14FF0013400E008C208C91D1B75
:1001E0009D4315EAC41FF8D013F0FF0102F8011B6C
:1001F0000DD01B0AF8E711F8013B002B02F8013B78
:1002000005D011F8013B002B02F8013BF3D130BDC2
:100210004FF0013C50F8042B51F8043B9A4221D195
:10022000A2EB0C03934313EACC1317D150F8042B21
:1002300051F8043B9A4215D1A2EB0C03934313EA05
:10024000CC130BD150F8042B51F8043B9A4209D13E
:10025000A2EB0C03934313EACC13DBD04FF0000066
:10026000704700BFD01A01BAB1FA81F101F018014C
:1002700022FA01F0CB40C1F12001DBB2C0B2C01ABA
:100280002CFA01F3D11A914311EAC311E6D1704758
:10029000704770477047000000487047F80400201E
:1002A0007546FFF7F9FFAE4605006946534620F054
:1002B0000700854618B020B5FFF774FFBDE8204061
:1002C0004FF000064FF000074FF000084FF0000B12
:1002D00021F00701AC46ACE8C009ACE8C009ACE8C5
:1002E000C009ACE8C0098D46704710B50446AFF3AD
:1002F00000802046BDE81040FFF73FBF01491820AD
:10030000ABBEFEE726000200704700BFFEE7704765
:1003100000B5034603E04FF47A7000F005F8181EAC
:10032000A3F10103F7D100BD00EBC001C9004FF0FC
:10033000E0225161002191610521116100BF4FF060
:10034000E021096901F480310029F8D004214FF03F
:10035000E022116170472DE9F04102460025002698
:10036000002000230024002791F803C00CF00F05A3
:1003700091F803C00CF0100CBCF1000F03D091F801
:1003800002C04CEA050591F800C0BCF1000F31D065
:10039000146800202BE04FF0010C0CFA00F3B1F8C8
:1003A00000C00CEA03069E4220D183004FF00F0CE0
:1003B0000CFA03F7BC4305FA03FC4CEA040491F879
:1003C00003C0BCF1280F06D14FF0010C0CFA00FC61
:1003D000C2F814C00AE091F803C0BCF1480F05D17F
:1003E0004FF0010C0CFA00FCC2F810C0401C0828A9
:1003F000D1D31460B1F800C0BCF1FF0F34DD5468F4
:1004000000202EE000F1080C4FF0010808FA0CF370
:10041000B1F800C00CEA03069E4221D183004FF0E0
:100420000F0C0CFA03F7BC4305FA03FC4CEA040476
:1004300091F803C0BCF1280F05D100F1080C08FAAF
:100440000CF8C2F8148091F803C0BCF1480F07D132
:1004500000F1080C4FF0010808FA0CF8C2F81080FF
:10046000401C0828CED35460BDE8F0810AB1016178
:1004700000E04161704700BFFEE700BFFEE7704744
:1004800070B5002100230F22C47804B3154C2468F2
:1004900004F4E064C4F5E064210AC1F10403CA4035
:1004A000447804FA03F184781440214309010E4C86
:1004B0000678A155047804F01F050124AC400578A6
:1004C0006D11AD0005F1E025C5F8004109E00478A3
:1004D00004F01F050124AC40044D0678761145F860
:1004E000264070BD0CED00E000E400E080E100E09B
:1004F00002490143024A1160704700000000FA05FA
:100500000CED00E000200CE0002106E00022064B8C
:1005100003EBC0135A544A1CD1B28029F6DB421CAB
:10052000D0B20828F0DB7047940000202DE9F0439A
:1005300004460D4616461F467F2C01DDBDE8F083BC
:100540003F2D00DDFAE7A119802902DDC4F1800109
:10055000CEB2E919402902DDC5F14001CFB22846EB
:1005600030E0234629E04FEAE07C00EB5C7C4FEA78
:10057000EC0CDFF85C8008EBCC1C1CF803C00246D6
:100580004FEAE07800EB58784FEAE808A0EBC8099A
:100590004FF0010808FA09F82CEA080C01464FEA66
:1005A000E07800EB58784FEAE808DFF8249009EB90
:1005B000C81808F803C0591CCBB2A1199942D2DC63
:1005C000411CC8B2E9198142CBDC00BFB6E700008C
:1005D0009400002038B5002406E0002500E06D1CE2
:1005E000B5F57A7FFBD3641CB4F57A7FF5D301218E
:1005F000082000F05BFA14208DF8030003208DF82A
:1006000002004FF40050ADF8000069460848FFF7BB
:10061000A2FE4FF48040ADF8000069460448FFF7A1
:100620009AFE012000F048F9012000F051F938BD90
:10063000000C014070B50546002411E080212141E5
:10064000294009B1012100E00021084600F040F9ED
:10065000012000F031F9002000F02EF9601CC4B236
:10066000082CEBDB012000F027F9002000F024F932
:1006700070BD10B5012000F02BF9012000F01CF92D
:10068000002000F025F9002000F016F910BD10B58B
:10069000002000F01DF9012000F00EF9012000F00B
:1006A00017F910BD10B5FFF795FFAE2000F01CF94B
:1006B000D52000F019F9802000F016F9A82000F0EC
:1006C00013F93F2000F010F9D32000F00DF90020BD
:1006D00000F00AF9402000F007F9A12000F004F929
:1006E000C82000F001F9DA2000F0FEF8122000F036
:1006F000FBF8812000F0F8F8662000F0F5F8D9202A
:1007000000F0F2F8F12000F0EFF8DB2000F0ECF858
:10071000302000F0E9F8A42000F0E6F8A62000F070
:10072000E3F88D2000F0E0F8142000F0DDF8AF20B1
:1007300000F0DAF8FFF7E6FE00F0AAF810BD70B599
:1007400005460C46A01CC4B245F0B00000F0CCF841
:10075000102141EA141000F0C7F804F00F0000F077
:10076000C3F870BD2DE9F04707460C469046994600
:10077000DDF820A07F2F01DDBDE8F0873F2C00DDF4
:10078000FAE74B46424621463846FFF7CFFE0025A2
:1007900070E0002669E0B8197F2800DD67E0E11706
:1007A00004EB517105EBE101072900DDE4E7204688
:1007B000E21704EB527205EBE202344B03EBC21278
:1007C000BB19D25C2146E31704EB5373DB10A4EB97
:1007D000C30305FB086C1AF80CC00CFA03FC42EAD0
:1007E0000C02E31704EB537305EBE303DFF89CC043
:1007F0000CEBC31307EB060C03F80C20E11704EB1A
:10080000517105EBE101491C072900DD2BE0204671
:10081000E21704EB527205EBE202521C1B4B03EB96
:10082000C212BB19D25C2146E31704EB5373DB10F1
:10083000A4EBC303C3F1080305FB086C1AF80CC052
:100840004CFA03FC42EA0C02E31704EB537305EB8A
:10085000E3035B1CDFF834C00CEBC31307EB060C9F
:1008600003F80C2000BF701CC6B2464593DB00BFE6
:10087000681CC5B2A9F10100C11700EB517101223A
:1008800002EBE101A94284DC00BF75E7940000207F
:1008900010B500240BE000212046FFF750FF05496A
:1008A00001EBC410802100F02FF8601CC4B2082CAA
:1008B000F1DB10BD9400002010B5044622464FF431
:1008C00080410248FFF7D2FD10BD0000000C01403E
:1008D00010B5044622464FF400510248FFF7C6FD0A
:1008E00010BD0000000C014010B50446FFF7C1FE2A
:1008F0007820FFF79FFE0020FFF79CFE2046FFF7C1
:1009000099FEFFF7C4FE10BD70B505460E46FFF711
:10091000B0FE7820FFF78EFE4020FFF78BFE00240C
:1009200004E0285DFFF786FE601CC4B2B442F8DB29
:10093000FFF7ADFE70BD000000B595B001210420A9
:1009400000F0B4F80121084600F0A0F818208DF856
:1009500053000F20ADF8500003208DF8520014A969
:100960003848FFF7F8FC4FF0804001F0C5F8002050
:10097000ADF84A00ADF8460040F2CF70ADF848003F
:1009800040F2CF20ADF8440000208DF84C0011A9B2
:100990004FF0804001F0F6F90DA801F0DFF960207A
:1009A000ADF834000020ADF83C000120ADF8360071
:1009B0000020ADF83A000DA94FF0804001F0A2F8F8
:1009C00009A801F0CBF96020ADF824000020ADF8B3
:1009D0002C000120ADF826000020ADF82A0009A95E
:1009E0004FF0804001F0DAF805A801F0B7F9602077
:1009F000ADF814000020ADF81C000120ADF8160081
:100A00000020ADF81A0005A94FF0804001F018F958
:100A100001A801F0A3F96020ADF804000020ADF8B2
:100A20000C000120ADF806000020ADF80A0001A975
:100A30004FF0804001F054F90121880701F050F88F
:100A400015B000BD0008014010B5044621464FF026
:100A5000804001F08DF910BD10B5044621464FF0DD
:100A6000804001F087F910BD10B5044621464FF0D3
:100A7000804001F081F910BD10B5044621464FF0C9
:100A8000804001F07BF910BD7047000029B1064A93
:100A9000D2690243044BDA6104E0034AD26982431B
:100AA000014BDA61704700000010024029B1064A8C
:100AB00092690243044B9A6104E0034A92698243BB
:100AC000014B9A61704700000010024030B50021D0
:100AD0000022002400232D4D6D6805F00C0121B18A
:100AE000042905D0082923D105E0294D056022E01D
:100AF000274D05601FE0254D6D6805F47012234DEC
:100B00006D6805F48034022505EB92421CB9214D35
:100B1000554305600BE01D4D6D6805F400351DB1B2
:100B20001C4D5543056002E0194D5543056002E038
:100B3000174D056000BF00BF144D6D6805F0F00152
:100B40000909154D6B5C0568DD4045600F4D6D680A
:100B500005F4E061090A104D6B5C4568DD40856075
:100B60000A4D6D6805F46051C90A0B4D6B5C456810
:100B7000DD40C560054D6D6805F44041890B074DAA
:100B80006B5CC568B5FBF3F5056130BD0010024034
:100B900000127A0000093D00000000201000002033
:100BA00010B567480078012815D1664800F008FEA6
:100BB000654800F041FE634800F020FE634800F005
:100BC00059FE4FF49670FFF7A3FB5D480078401C78
:100BD0005B490870B2E05A480078022815D15B489A
:100BE00000F0EEFD584800F027FE574800F006FEE2
:100BF000564800F03FFE4FF49670FFF789FB5048CF
:100C00000078401C4E49087098E04D480078032851
:100C100015D14E4800F0D4FD4A4800F00DFE4A4878
:100C200000F0ECFD474800F025FE4FF49670FFF70A
:100C30006FFB43480078401C414908707EE0404803
:100C40000078042815D13F4800F0BAFD3D4800F077
:100C5000F3FD3C4800F0D2FD3A4800F00BFE4FF4A3
:100C60009670FFF755FB36480078401C34490870F1
:100C700064E033480078052815D1334800F0A0FD22
:100C8000304800F0D9FD314800F0B8FD2D4800F0A3
:100C9000F1FD4FF49670FFF73BFB29480078401CAC
:100CA000274908704AE026480078062815D12648CA
:100CB00000F086FD254800F0BFFD244800F09EFDB1
:100CC000214800F0D7FD4FF49670FFF721FB1C4838
:100CD0000078401C1A49087030E01948007807284D
:100CE00015D1184800F06CFD184800F0A5FD154816
:100CF00000F084FD144800F0BDFD4FF49670FFF73E
:100D000007FB0F480078401C0D49087016E00C489E
:100D10000078082812D10B4800F052FD094800F075
:100D20008BFD084800F06AFD064800F0A3FD4FF473
:100D30009670FFF7EDFA01200149087010BD000020
:100D4000140000200000B4420000344200000743B9
:100D500010B5084800F034FD074800F06DFD074865
:100D600000F04CFD064800F085FDFA20FFF7D0FAB0
:100D700010BD0000000020410000A0420000C84259
:100D800000002A4310B563480078012814D1624856
:100D900000F016FD614800F04FFD5F4800F02EFDA9
:100DA0005F4800F067FDC820FFF7B2FA59480078A5
:100DB000401C58490870ABE056480078022814D10E
:100DC000574800F0FDFC554800F036FD534800F050
:100DD00015FD534800F04EFDC820FFF799FA4D4825
:100DE0000078401C4B49087092E04A48007803287C
:100DF00014D14B4800F0E4FC474800F01DFD474883
:100E000000F0FCFC444800F035FDC820FFF780FAF4
:100E100040480078401C3F49087079E03D48007820
:100E2000042814D13C4800F0CBFC3B4800F004FD02
:100E3000394800F0E3FC384800F01CFDC820FFF7FB
:100E400067FA34480078401C3249087060E0314845
:100E50000078052814D1314800F0B2FC2E4800F08B
:100E6000EBFC2F4800F0CAFC2B4800F003FDC82023
:100E7000FFF74EFA27480078401C2649087047E0E3
:100E800024480078062814D1244800F099FC24480E
:100E900000F0D2FC224800F0B1FC204800F0EAFC4F
:100EA000C820FFF735FA1B480078401C1949087024
:100EB0002EE018480078072814D1174800F080FC6D
:100EC000174800F0B9FC144800F098FC134800F0F3
:100ED000D1FCC820FFF71CFA0E480078401C0D49D1
:100EE000087015E00B480078082811D10A4800F076
:100EF00067FC094800F0A0FC074800F07FFC0648AA
:100F000000F0B8FCC820FFF703FA0120014908707F
:100F100010BD0000180000200000B4420000344260
:100F20000000074310B563480078012814D16248D7
:100F300000F046FC604800F07FFC5F4800F05EFC7B
:100F40005D4800F097FCC820FFF7E2F959480078A7
:100F5000401C58490870ABE056480078022814D16C
:100F6000554800F02DFC554800F066FC524800F052
:100F700045FC534800F07EFCC820FFF7C9F94D48F6
:100F80000078401C4B49087092E04A4800780328DA
:100F900014D14B4800F014FC484800F04DFC474881
:100FA00000F02CFC464800F065FCC820FFF7B0F9C3
:100FB00040480078401C3F49087079E03D4800787F
:100FC000042814D13E4800F0FBFB3B4800F034FC01
:100FD0003A4800F013FC384800F04CFCC820FFF7FA
:100FE00097F934480078401C3249087060E0314875
:100FF0000078052814D1304800F0E2FB2E4800F0BC
:101000001BFC2D4800F0FAFB2B4800F033FCC820F5
:10101000FFF77EF927480078401C2649087047E012
:1010200024480078062814D1244800F0C9FB22483F
:1010300000F002FC224800F0E1FB1F4800F01AFC1F
:10104000C820FFF765F91B480078401C1949087053
:101050002EE018480078072814D1184800F0B0FB9B
:10106000174800F0E9FB164800F0C8FB134800F0F1
:1010700001FCC820FFF74CF90E480078401C0D49D0
:10108000087015E00B480078082811D10A4800F0D4
:1010900097FB0B4800F0D0FB074800F0AFFB074878
:1010A00000F0E8FBC820FFF733F901200149087080
:1010B00010BD0000190000200000B44200000743EA
:1010C0000000344210B533480078012814D132486A
:1010D00000F076FB314800F0AFFB2F4800F08EFBAC
:1010E0002E4800F0C7FBC820FFF712F92948007806
:1010F000401C284908704BE026480078022814D18B
:10110000254800F05DFB264800F096FB224800F0E1
:1011100075FB234800F0AEFBC820FFF7F9F81D4827
:101120000078401C1B49087032E01A4800780328F8
:1011300014D11A4800F044FB194800F07DFB174811
:1011400000F05CFB164800F095FBC820FFF7E0F8C4
:1011500010480078401C0F49087019E00D480078CD
:10116000042815D10D4800F02BFB0C4800F064FB5F
:101170000A4800F043FB094800F07CFBC820FFF759
:10118000C7F804480078401C024908700120087024
:1011900010BD00001B000020000007430000B44207
:1011A0000000344210B533480078012814D1324889
:1011B00000F006FB314800F03FFB2F4800F01EFB1B
:1011C0002E4800F057FBC820FFF7A2F82948007806
:1011D000401C284908704BE026480078022814D1AA
:1011E000274800F0EDFA254800F026FB244800F0DF
:1011F00005FB224800F03EFBC820FFF789F81D4898
:101200000078401C1B49087032E01A480078032817
:1012100014D11B4800F0D4FA174800F00DFB184811
:1012200000F0ECFA144800F025FBC820FFF770F836
:1012300010480078401C0F49087019E00D480078EC
:10124000042815D10C4800F0BBFA0B4800F0F4FA62
:10125000094800F0D3FA084800F00CFBC820FFF75B
:1012600057F804480078401C0249087001200870B3
:1012700010BD00001A0000200000B44200003442FB
:101280000000074310B5002000F09AFA064800F06D
:10129000D3FA002000F0B2FA034800F0EBFAC820BD
:1012A000FFF736F810BD00000000344310B51848B1
:1012B0000078012814D1002000F082FA154800F0CF
:1012C000BBFA144800F09AFA124800F0D3FAFA2058
:1012D000FFF71EF80E480078401C0D49087015E015
:1012E0000B480078022811D10B4800F069FA094830
:1012F00000F0A2FA074800F081FA064800F0BAFAB6
:10130000FA20FFF705F801200149087010BD000020
:101310001C0000200000B4420000344210B5FFF76A
:101320000BFB10BD10B567480078012815D1664841
:1013300000F046FA644800F07FFA634800F05EFA75
:10134000614800F097FA4FF49670FEF7E1FF5D48B0
:101350000078401C5B490870B2E05A4800780228C7
:1013600015D1594800F02CFA584800F065FA564853
:1013700000F044FA564800F07DFA4FF49670FEF7FC
:10138000C7FF50480078401C4E49087098E04D480F
:101390000078032815D14E4800F012FA4B4800F0AF
:1013A0004BFA4A4800F02AFA494800F063FA4FF431
:1013B0009670FEF7ADFF43480078401C4149087025
:1013C0007EE040480078042815D1414800F0F8F943
:1013D0003D4800F031FA3D4800F010FA3A4800F07C
:1013E00049FA4FF49670FEF793FF36480078401C98
:1013F0003449087064E033480078052815D1324834
:1014000000F0DEF9304800F017FA2F4800F0F6F946
:101410002D4800F02FFA4FF49670FEF779FF294817
:101420000078401C274908704AE0264800780628C2
:1014300015D1264800F0C4F9234800F0FDF92448EE
:1014400000F0DCF9204800F015FA4FF49670FEF732
:101450005FFF1C480078401C1A49087030E01948AA
:101460000078072815D1194800F0AAF9184800F0AB
:10147000E3F9174800F0C2F9144800F0FBF94FF403
:101480009670FEF745FF0F480078401C0D49087024
:1014900016E00C480078082812D10B4800F090F9AB
:1014A0000B4800F0C9F9084800F0A8F9074800F017
:1014B000E1F94FF49670FEF72BFF01200149087007
:1014C00010BD0000150000200000B44200000743DA
:1014D0000000344210B519480078012815D1184889
:1014E00000F06EF9164800F0A7F9164800F086F9EA
:1014F000144800F0BFF94FF4AF70FEF709FF0F4832
:101500000078401C0D49087016E00C48007802284D
:1015100012D10C4800F054F90A4800F08DF908483F
:1015200000F06CF9064800F0A5F94FF4AF70FEF733
:10153000EFFE01200149087010BD00001D000020D1
:10154000000048420000024310B5084800F038F996
:10155000074800F071F9074800F050F9034800F01F
:1015600089F9C820FEF7D4FE10BD00000000B44287
:101570000000F0410000164310B51848007801281B
:1015800014D1002000F01CF9154800F055F9154859
:1015900000F034F9144800F06DF9FA20FEF7B8FEB7
:1015A0000E480078401C0D49087015E00B48007883
:1015B000022811D10D4800F003F9094800F03CF968
:1015C000084800F01BF9084800F054F9FA20FEF72B
:1015D0009FFE01200149087010BD00001E00002080
:1015E0000000F041000016430000B4420000344205
:1015F00010B535480078012815D1344800F0E0F8DE
:10160000334800F019F9314800F0F8F8304800F09C
:1016100031F94FF49670FEF77BFE2B480078401CA2
:10162000294908704EE028480078022815D127483B
:1016300000F0C6F8274800F0FFF8244800F0DEF874
:10164000244800F017F94FF49670FEF761FE1E482B
:101650000078401C1C49087034E01B4800780328BF
:1016600015D11B4800F0ACF81A4800F0E5F818480E
:1016700000F0C4F8174800F0FDF84FF49670FEF73C
:1016800047FE11480078401C0F4908701AE00E48C8
:101690000078042816D10E4800F092F80C4800F0AB
:1016A000CBF80B4800F0AAF8094800F0E3F84FF433
:1016B0009670FEF72DFE04480078401C0249087021
:1016C0000120087010BD0000170000200000074333
:1016D0000000B4420000344210B5354800780128BB
:1016E00015D1344800F06CF8334800F0A5F83148C3
:1016F00000F084F8304800F0BDF84FF49670FEF723
:1017000007FE2B480078401C294908704EE0284805
:101710000078022815D1294800F052F8264800F038
:101720008BF8264800F06AF8234800F0A3F84FF43D
:101730009670FEF7EDFD1E480078401C1C490870AD
:1017400034E01B480078032815D11C4800F038F815
:10175000184800F071F8194800F050F8154800F0EA
:1017600089F84FF49670FEF7D3FD11480078401CBD
:101770000F4908701AE00E480078042816D10D4869
:1017800000F01EF80B4800F057F80A4800F036F851
:10179000084800F06FF84FF49670FEF7B9FD044862
:1017A0000078401C024908700120087010BD00003C
:1017B000160000200000B44200003442000007433D
:1017C0002DE9F04104460A49204600F0ADFF80466D
:1017D000084901F08BF80746074900F043FF064629
:1017E00001F064F885B22846FFF72EF9BDE8F081D4
:1017F0000000344300004843000048422DE9F04116
:1018000004460A49204600F08FFF8046084901F04F
:101810006DF80746074900F025FF064601F046F837
:1018200085B22846FFF718F9BDE8F081000034437F
:1018300000004843000048422DE9F04104460A49AF
:10184000204600F071FF8046084901F04FF8074636
:10185000074900F007FF064601F028F885B2284640
:10186000FFF702F9BDE8F08100003443000048436F
:10187000000048422DE9F04104460A49204600F0A4
:1018800053FF8046084901F031F80746074900F048
:10189000E9FE064601F00AF885B22846FFF7ECF8A3
:1018A000BDE8F08100003443000048430000484296
:1018B00010B50848FFF784FF0648FFF7BDFF05484D
:1018C000FFF79CFF0348FFF7D5FFC820FEF720FD78
:1018D00010BD00000000B4427047000000B587B0A2
:1018E00001218803FFF7E2F801210420FFF7DEF869
:1018F00018208DF81B004FF40070ADF8180003207D
:101900008DF81A0006A92148FEF725FD48208DF81C
:101910001B004FF48060ADF8180003208DF81A000A
:1019200006A91A48FEF717FD4FF416500290002042
:10193000ADF814000C20ADF812000020ADF8100036
:10194000ADF80E00ADF80C0002A9114800F0CEFB76
:10195000012240F225510E4800F0A3FB4FF4A06095
:10196000FEF7C6FD25208DF8040001208DF8070044
:101970008DF805008DF8060001A8FEF781FD012114
:10198000034800F058FB07B000BD0000000801400C
:101990000038014010B500F001F810BD0CB5002072
:1019A000019000903348006840F48030314908606D
:1019B00000BF3048006800F4003000900198401CDF
:1019C0000190009818B90198B0F5A06FF1D129489D
:1019D000006800F4003010B10120009001E0002008
:1019E00000900098012843D12348006840F010007F
:1019F000214908600846006820F003000860084696
:101A0000006840F0020008601A48406819494860C0
:101A10000846406848600846406840F48060486076
:101A20000846406820F47C1048600846406840F44E
:101A3000E81048600846006840F08070086000BF09
:101A40000C48006800F000700028F9D00948406890
:101A500020F00300074948600846406840F0020053
:101A6000486000BF0348406800F00C000828F9D126
:101A70000CBD000000100240002002407047000032
:101A800010B51348006840F001001149086008468D
:101A90004068104908400E494860084600680E49F1
:101AA00008400B4908600846006820F48020086060
:101AB0000846406820F4FE0048604FF41F0088602C
:101AC000FFF768FF4FF000600449086010BD000098
:101AD000001002400000FFF8FFFFF6FE08ED00E0F6
:101AE00021B1028842F00102028004E002884FF630
:101AF000FE731A400280704701894FF6F872114058
:101B00000181704770B5002400220023058C4FF638
:101B1000FE7635400584028C8388048B4FF68F75E2
:101B20002C40B51E2C400D882C43751E2A400D8973
:101B30002A434D882A43144DA8420BD0134DA84286
:101B400008D0134DA84205D0124DA84202D0124D24
:101B5000A84213D14FF6F7752A404D892A434FF614
:101B6000FB752A408D882A434FF6FF652B404FF6C0
:101B7000FF552B408D892B43CD892B4383800483D4
:101B8000CD888586028470BD002C01400034014060
:101B900000400140004401400048014070B500246D
:101BA00000220023058C4FF6EF7635400584028C29
:101BB0008388048B48F6FF752C404FF6FF452C4078
:101BC0000D884FF6FF7606EA05252C434FF6DF75A4
:101BD0002A400D8906EA05152A434D8806EA0515AF
:101BE0002A43154DA84202D0144DA8421DD14FF6EC
:101BF0007F752A404D894FF6FF7606EA05152A4380
:101C00004FF6BF752A408D8806EA05152A434FF620
:101C1000FF352B404FF2FF752B408D8906EA850575
:101C20002B43CD8906EA85052B4383800483CD8829
:101C30000587028470BD0000002C01400034014083
:101C400070B5002400220023058C4FF6FF66354056
:101C50000584028C8388848B4FF68F752C404FF659
:101C6000FC752C400D882C434FF6FF552A400D89FA
:101C70004FF6FF7606EA05252A434D8806EA052534
:101C80002A43154DA84202D0144DA8421DD14FF24F
:101C9000FF752A404D894FF6FF7606EA05252A434F
:101CA0004FF6FF352A408D8806EA05252A434EF671
:101CB000FF752B404DF6FF752B408D8906EA051503
:101CC0002B43CD8906EA05152B4383808483CD8879
:101CD0008587028470BD0000002C01400034014063
:101CE00070B5002200230024058C4EF6FF763540A7
:101CF0000584038C8488828B48F6FF752A404FF652
:101D0000FF452A400D884FF6FF7606EA05252A434F
:101D10004DF6FF752B400D8906EA05352B434D889E
:101D200006EA05352B430B4DA84202D00A4DA842C6
:101D300008D14BF6FF752C408D894FF6FF7606EAE9
:101D400085152C4384808283CD88A0F8405003847D
:101D500070BD0000002C01400034014000210180D2
:101D600041808180C180018141818181C181704731
:101D7000818670470187704781877047A0F84010BF
:101D800070470000002202881D4B98420ED01D4B68
:101D900098420BD0B0F1804F08D01B4B984205D031
:101DA0001A4B984202D01A4B984204D14FF68F73C7
:101DB0001A404B881A43174B984207D0164B98424B
:101DC00004D04FF6FF431A40CB881A4302808B8819
:101DD00083850B8803850A4B98420BD0094B9842A8
:101DE00008D00E4B984205D00D4B984202D00D4BB7
:101DF000984201D10B7A0386012383827047000049
:101E0000002C014000340140000400400008004064
:101E1000000C004000100040001400400040014051
:101E2000004401400048014010B540F225512148CE
:101E300000F00DF901283CD11E4800F0C3F9C4B2EE
:101E40001D48007858B9402C2DD11C48007850BB53
:101E500001201949087000201949087023E016482C
:101E6000007801280FD1392C03D1022012490870C3
:101E700019E0144812490978445411480078401C6C
:101E80000F4908700FE00C48007802280BD1382C5D
:101E900009D10020084908700A49094A1278885473
:101EA00001200649087040F22551024800F0B4F8BC
:101EB00000BF10BD00380140200000201F0000209E
:101EC000210000203000002010B540F225512148AB
:101ED00000F0BDF801283CD11E4800F073F9C4B2EF
:101EE0001D48007858B9402C2DD11C48007850BBB3
:101EF00001201949087000201949087023E016488C
:101F0000007801280FD10D2C03D10220124908704E
:101F100019E0144812490978445411480078401CCB
:101F20000F4908700FE00C48007802280BD10A2CEA
:101F300009D10020084908700A49094A12788854D2
:101F400001200649087040F22551024800F064F86B
:101F500000BF10BD004800402300002022000020E8
:101F6000240000209404002010B586B0044601210E
:101F70000820FEF79BFD01218804FEF787FD4FF442
:101F80000060ADF8000004208DF803006946204889
:101F9000FEF7E1F94FF48060ADF8000003208DF802
:101FA000020018208DF8030069461948FEF7D3F99E
:101FB00002940020ADF80C00ADF80E00ADF8100052
:101FC000ADF814000C20ADF8120002A9114800F081
:101FD0008DF8012240F225510E4800F062F80121EF
:101FE0000C4800F028F84FF4A060FEF781FA272093
:101FF0008DF8040002208DF8050001208DF8060000
:102000008DF8070001A8FEF73BFA06B010BD0000EE
:10201000000C01400048004010B50022002340F6AB
:102020006A14A14200D100BF0A1201249440A3B255
:10203000DC43048010BD21B1828942F400528281C8
:1020400004E082894DF6FF731A408281704770B5B3
:102050000246002400230025002040F66A16B14203
:1020600000D100BFC1F3421501F01F03012606FA9B
:1020700003F3012D02D19689334006E0022D02D1EF
:10208000168A334001E0968A33400C12012606FA84
:1020900004F41688344013B10CB1012000E0002094
:1020A00070BDF0B50346002400260025002040F650
:1020B0006A17B94200D100BF1846C1F3421401F0BB
:1020C0001F06012707FA06F5012C01D10C3004E0A8
:1020D000022C01D1103000E014301AB107682F43F0
:1020E000076002E00768AF430760F0BD2DE9F047E5
:1020F00086B005460E460024A24600BFA146002732
:10210000B08900B100BF2F462C8A4CF6FF70044006
:10211000F08804432C82AC894EF6F3100440B0885A
:1021200031890843718908430443AC81AC8A4FF676
:10213000FF400440B0890443AC8201A8FEF7C6FC0E
:102140001F48874202D1DDF810A001E0DDF80CA0A5
:10215000A88900F4004040B10AEBCA0000EB0A1065
:1021600031684900B0FBF1F807E00AEBCA0000EB68
:102170000A1031688900B0FBF1F86420B8FBF0F078
:1021800004012009642101FB1089A88900F40040A2
:1021900040B1322000EBC900B0FBF1F000F00700C5
:1021A000044308E0322000EB09106421B0FBF1F099
:1021B00000F00F0004432C8106B0BDE8F08700005A
:1021C0000038014001468888C0F30800704700BF0E
:1021D000FEE7000008B5FEF765FAFFF79FF8FFF786
:1021E0007DFB4FF41650FFF7BFFEEB4840238022E3
:1021F000002100900846FEF7B5FAFEF749FB4FF4C0
:102200007A70FEF785F8FFF753FBC3E1E3480078E7
:10221000012803D0E248007801287DD1E048007809
:10222000012803D1DF49E048FDF7CEFFDFA1DE48FA
:10223000FDF7EEFF20B90120DE490870DE49087085
:10224000DEA1D948FDF7E4FF20B90220D949087082
:10225000D9490870DBA1D448FDF7DAFF20B9032083
:10226000D4490870D4490870D8A1CF48FDF7D0FFF1
:1022700020B90420CF490870CF490870D5A1CA48B9
:10228000FDF7C6FF20B90520CA490870CA49087081
:10229000D2A1C548FDF7BCFF20B90620C54908708A
:1022A000C5490870CEA1C048FDF7B2FF20B907208C
:1022B000C0490870C0490870CBA1BB48FDF7A8FF12
:1022C00020B90820BB490870BB490870C8A1B648AE
:1022D000FDF79EFF20B90920B6490870B64908707D
:1022E000C4A1B148FDF794FF20B90A20B149087094
:1022F000B1490870C2A1AC48FDF78AFF20B90B2094
:10230000AC490870AC490870C1A1A748FDF780FF2F
:1023100030B90C20A74900E035E00870A6490870E4
:10232000BFA1A148FDF774FF20B90D20A149087095
:10233000A1490870BDA19C48FDF76AFF20B90E2095
:102340009C4908709C490870BBA19748FDF760FF45
:1023500020B90F209749087097490870B7A1924893
:10236000FDF756FF10B9102093490870B4A18E48AC
:10237000FDF74EFF10B911208F49087000208749E2
:102380000870874908708B480078102836D2DFE83B
:1023900000F035080B0E1114171A1D202326292CC6
:1023A0002F32FEF7FDFB29E0FEF7BCFF26E0FFF72A
:1023B00093F923E0FFF71CF920E0FEF763FF1DE02F
:1023C000FFF776FA1AE0FEF771FF17E0FFF782F8E1
:1023D00014E0FFF7B9F811E0FFF7CEF80EE0FEF7D2
:1023E000D1FC0BE0FEF79EFD08E0FEF7DBFE05E00A
:1023F000FEF768FE02E0FEF7ABFC00BF00BF6E48D0
:102400000078122814D2DFE800F0C409141F2A351E
:10241000404B56616C77828D98A3AEB95E484023DD
:102420008022002100900846FEF79CF9FEF730FA62
:10243000AFE0594840238022002100900846FEF773
:1024400091F9FEF725FAA4E07F484023802200217D
:1024500000900846FEF786F9FEF71AFA99E07B48E5
:1024600040238022002100900846FEF77BF9FEF70A
:102470000FFA8EE076484023802200210090084623
:10248000FEF770F9FEF704FA83E0724840238022D9
:10249000002100900846FEF765F9FEF7F9F978E0AB
:1024A0003D4840238022002100900846FEF75AF95B
:1024B000FEF7EEF96DE0684840238022002100908D
:1024C0000846FEF74FF9FEF7E3F962E03248402391
:1024D0008022002100900846FEF744F9FEF7D8F963
:1024E00057E02D4840238022002100900846FEF747
:1024F00039F9FEF7CDF94CE05848402380220021FD
:1025000000900846FEF72EF9FEF7C2F941E0534865
:1025100040238022002100900846FEF723F9FEF7B1
:10252000B7F936E04D48402380220021009008464C
:10253000FEF718F9FEF7ACF92BE04848402380225B
:10254000002100900846FEF70DF9FEF7A1F920E002
:10255000434840238022002100900846FEF702F9FC
:10256000FEF796F915E00C484023802200210090E8
:102570000846FEF7F7F8FEF78BF90AE037484023E4
:102580008022002100900846FEF7ECF8FEF780F963
:1025900000BF00BF3AE60000B44800081F0000205A
:1025A0002200002094040020300000204164766165
:1025B0006E6365002C0000202D00002052657472AF
:1025C0006561740052696768740000004C65667448
:1025D00000000000446F776E00000000557000009E
:1025E0004861726400000000526F636B00000000DD
:1025F000536974005369745F48617264000000009D
:10260000416476616E63655F706C757300000000F5
:10261000526574726561745F706C757300000000C0
:1026200052696768745F706C757300004C656674FE
:102630005F706C757300000041737300446F750028
:102640004372617A79000000B4500008B44C00086D
:10265000B4440008B4380008B4400008B43C000892
:10266000B454000890EA010F48BF81F0004100F126
:102670001082421A3CBF801A89184FEAD0524FF09C
:102680007F4C1CEA410FA2EBD15318BF9CEA026FAA
:1026900000F03B804FF0004C4CEA00204CEA012156
:1026A00021FA03FC10EB0C0C1ED202F1FF325FEAA0
:1026B0001C2040EBC25038BF70471CF07F0F4FEA20
:1026C000400C18BFBCF17F4F38BF7047C3F12003E7
:1026D000994008BF20F00100BCF17F4F38BF704720
:1026E000A0F1C04000F0C9B94FEA3C00000A40EB3D
:1026F000C25028BF1CF0FF0F4FEA400CE6D018BFB5
:10270000BCF17F4F38BF7047EAE79CEA026F05D003
:1027100010EA5C0F08BF00F00040704710B500F0F1
:1027200066F900BF64FBBE3E4FF47F0C1CEAD0127A
:102730001EBF1CEAD11392EA0C0F93EA0C0F00F0B3
:10274000858090EA010F48BF42F4807240F4000C8B
:1027500041F400002CF07F4120F07F4000B5814221
:10276000A2EB03020FF2081CACEB504EC0F10000CC
:102770009EF800E04FEA4E0E00FB0EFC38BF490009
:102780004FEA2C1C02F5FA020CFB0EF34FEACE1EA8
:102790004FEA112C4FEAC1210EEB635E42EB22425D
:1027A0000EFB0CFC4FEA1C5300FB03114FEA112CEB
:1027B0004FEA01310EFB0CFC4FEADC4C00FB0C1124
:1027C000C14228BF09184CEB03335DF804EB10EB52
:1027D000410143EBC250B2F57C0F38BF704729D599
:1027E00012F0F00F1CBF00F1C04000F00040704735
:1027F000008182838485868788898B8C8D8E8F91DA
:102800009293959697999A9C9D9FA0A2A3A5A7A8FD
:10281000AAACAEB0B2B3B5B7B9BCBEC0C2C5C7C929
:10282000CCCED1D4D7D9DCDFE2E6E9ECF0F3F7FA8D
:10283000FE0000004FEA400C0CF1807CBCF17E4FA2
:1028400028BF7047B0F1C04000F017B990EA010FFF
:102850000CEAD11348BF42F48072624538BF634529
:1028600007D213F47F0F16D080EA010000F0004079
:10287000704710B500F0BBF8097EFC3E00F005B8CB
:1028800080EA010000F00040704780EA010000F09B
:10289000004000F0F2B812F47F0F04BF0248704706
:1028A00080EA010000F0E9B80000C07FC10DD1F15D
:1028B0009E0206DB4FEA002343F0004323FA02F0B6
:1028C0007047004207D54FEA4001B1F1FE4F02D2F6
:1028D0004FF00000704710B500F089F8499224804D
:1028E000002070476FEA2000704700004FF47F0C13
:1028F0001CEAD0121EBF1CEAD11392EA0C0F93EA15
:102900000C0F00F0478090EA010F48BF42F480723C
:102910004FF0004C4CEA00204CEA012102EB03028C
:10292000A0FB0113A2F50002002918BF43F0010328
:102930005B0028BF4FEA330342EB22425FEA132CCD
:102940004CEBC2502EBFBCEB436FB2F57C0F70470F
:102950004FEA036CBCF1004F08BF20F00100B2F554
:102960007C0F38BF70470BD582F0FF0212F5803F15
:10297000C8BF704700F1C040D8BF00F000407047AA
:1029800000F5000C5FEA4C0C48BF7047B0F1C04046
:1029900000F073B890EA010F0CEAD11348BF42F47B
:1029A0008072624538BF634504D280EA010000F0BE
:1029B0000040704710B500F01AF800BF8900013ED2
:1029C00000F007B800F009B85FEA410C5FEA1C6C40
:1029D00008D080EA010000F050B85FEA400C5FEADE
:1029E0001C6CF6D14FF00040A0F5800070470EF14E
:1029F000020E2EF0030E5EF8044B244204D44FEA7C
:102A00004102B2F17F4F11D84FEA4003B3F17F4F3B
:102A10000CD80ED14FEAD07CB2F17F4F0CEB4C0CAE
:102A20000CF1020C08BF4CEBD17C04E04FF0080C19
:102A300001E04FEAD17C0CEB4C0324FA03F404F0E0
:102A40000704B4F1040C06D20EEB840CBDE8104070
:102A50004CF0010C6047DFE80CF0070802024FF071
:102A60000040A0F5800010BD0846420018BFD2F11A
:102A7000807288BF00F0004010BDFF2141EAD050B5
:102A8000C005704790EA010F48BF81F000413FF553
:102A9000F0AD421A04D882F00042A0EB02001144CB
:102AA0004FEAD0524FF07F4C1CEA410FA2EBD153BA
:102AB00018BF9CEA026F4AD04FF0004C4CEA00204D
:102AC0004CEA012121FA03FCB0EB0C0C0FD412F0FC
:102AD000FE0F36D05FEA4C001DD5001240EBC2500D
:102AE00038BF70471CF03F0F18BF70470BE0A2F1D2
:102AF00001025FEA1C2040EBC25038BF70471CF057
:102B00007F0F18BF7047C3F12003994014BF401EC8
:102B100020F00100704780084FEA122308BF704779
:102B2000B0FA80FCA2EB0C02CCF1280C60FA0CF09D
:102B300093EA122F04BF00EBC25070474FEAC370F4
:102B40007047130A5FEADC1008BF7047F6E79CEA9B
:102B5000026F04D010EA5C0F08BF0020704710B568
:102B6000FFF745FF40DFF63E81F000407047000070
:102B70000000000000000000000000000000000055
:102B800000F80000000000000033300000000016D4
:102B90000E00160E0000000000000000000040C003
:102BA0007840C0784000043F04043F0404000070F3
:102BB00088FC08300000001820FF211E0000F008EB
:102BC000F000E018000000211C031E211E0000F090
:102BD0000888700000001E212324192721100000FE
:102BE00000160E00000000000000000000000000C1
:102BF00000E0180402000000000718204000000256
:102C00000418E000000000402018070000004040C9
:102C100080F0804040000202010F0102020000002B
:102C200000F0000000000101011F0101010000008F
:102C300000000000000000B0700000000000000074
:102C4000000000000000000101010101010100007D
:102C50000000000000000030300000000000000014
:102C6000000080601804006018060100000000E009
:102C700010080810E000000F102020100F000010B6
:102C800010F8000000000020203F2020000000700D
:102C90000808088870000030282422213000003005
:102CA0000888884830000018202020110E000000FD
:102CB000C02010F8000000070424243F240000F87E
:102CC0000888880808000019212020110E0000E063
:102CD000108888180000000F112020110E00003805
:102CE0000808C83808000000003F0000000000701D
:102CF000880808887000001C222121221C0000E0A6
:102D000010080810E0000000312222110F0000001E
:102D100000C0C000000000000030300000000000D3
:102D200000C0C0000000000080B070000000000083
:102D300080402010080000010204081020004040DC
:102D4000404040404000040404040404040000081F
:102D500010204080000000201008040201000070D4
:102D600048080808F0000000003036010000C030BC
:102D7000C828E810E0000718272423140B000000DF
:102D8000C038E0000000203C23020227382008F869
:102D9000888888700000203F202020110E00C0305D
:102DA000080808083800071820202010080008F834
:102DB00008080810E000203F202020100F0008F82D
:102DC0008888E8081000203F20202320180008F8F9
:102DD0008888E8081000203F200003000000C03071
:102DE00008080838000007182020221E020008F8F2
:102DF00008000008F808203F210101213F200008B9
:102E000008F8080800000020203F202000000000F3
:102E10000808F8080800C08080807F00000008F8DB
:102E200088C028180800203F20012638200008F814
:102E3000080000000000203F20202020300008F87B
:102E4000F800F8F80800203F003F003F200008F895
:102E500030C00008F808203F200007183F00E010AD
:102E600008080810E0000F10202020100F0008F8BC
:102E700008080808F000203F210101010000E010CF
:102E800008080810E0000F18242438504F0008F8F4
:102E9000888888887000203F2000030C3020007054
:102EA0008808080838000038202121221C00180852
:102EB00008F8080818000000203F2000000008F86B
:102EC00008000008F808001F202020201F000878B4
:102ED000880000C83808000007380E010000F80814
:102EE00000F80008F800033C0700073C030008183E
:102EF00068808068180820302C03032C30200838A4
:102F0000C800C83808000000203F2000000010085A
:102F10000808C838080020382621202018000000A2
:102F200000FE020202000000007F40404000000C52
:102F300030C000000000000000010638C0000002A0
:102F40000202FE000000004040407F000000002020
:102F5000100804081020000000000000000000001D
:102F6000000000000000808080808080808000025F
:102F70000408000000000000000000000000000045
:102F80008080808000000019242222223F2008F83F
:102F9000008080000000003F112020110E00000082
:102FA000008080800000000E112020201100000011
:102FB00000808088F800000E112020103F200000C3
:102FC000808080800000001F2222222213000080C7
:102FD00080F0888888180020203F20200000000012
:102FE000808080808000006B94949493600008F847
:102FF000008080800000203F210000203F200080D2
:103000009898000000000020203F202000000000D1
:1030100000809898000000C08080807F000008F841
:10302000000080808000203F24022D302000000816
:1030300008F8000000000020203F202000008080D1
:10304000808080808000203F20003F20003F008063
:1030500080008080000000203F2100203F200000F1
:10306000808080800000001F202020201F008080A2
:1030700000808000000080FFA12020110E000000D1
:10308000008080808000000E112020A0FF808080C2
:1030900080008080800020203F212000010000006F
:1030A0008080808080000033242424241900008044
:1030B00080E0808000000000001F20200000808051
:1030C000000000808000001F202020103F20808012
:1030D00080000080808000010E30080601008080A2
:1030E0000080008080800F300C030C300F000080C7
:1030F0008000808080000020312E0E3120008080F2
:1031000080000080808080818E7018060100008021
:103110008080808080000021302C2221300000003F
:103120000000807C020200000000003F40400000E0
:103130000000FF00000000000000FF00000000028F
:10314000027C800000000040403F00000000008042
:1031500040408000008000000000000101000000ED
:10316000000000000000002F000000000700070022
:1031700000147F147F1400242A7F2A1200231308CE
:10318000646200364955225000000007000000002C
:103190001C224100000041221C000014083E0814BB
:1031A0000008083E0808000000A0600000080808A9
:1031B0000808000060600000002010080402003EC3
:1031C0005149453E0000427F40000042615149465E
:1031D000002141454B31001814127F10002745454E
:1031E0004539003C4A494930000171090503003660
:1031F0004949493600064949291E00003636000073
:103200000000563600000008142241000014141477
:103210001414000041221408000201510906003E66
:103220004955592E007C1211127C007F49494936BC
:10323000003E41414122007F4141221C007F49491B
:103240004941007F09090901003E4149497A007F4F
:103250000808087F0000417F4100002040413F01F5
:10326000007F08142241007F40404040007F020C54
:10327000027F007F0408107F003E4141413E007FF5
:1032800009090906003E4151215E007F09192946BE
:103290000046494949310001017F0101003F40409A
:1032A000403F001F2040201F003F4038403F006348
:1032B000140814630007087008070061514945436A
:1032C00000007F414100000204081020000041413D
:1032D0007F00000402010204004040404040000022
:1032E00001020400002054545478007F48444438BC
:1032F00000384444442000384444487F0038545443
:10330000541800087E0901020018A4A4A47C007FC0
:10331000080404780000447D4000004080847D0063
:10332000007F102844000000417F4000007C04180A
:103330000478007C0804047800384444443800FCD5
:10334000242424180018242418FC007C08040408F1
:1033500000485454542000043F444020003C404066
:10336000207C001C2040201C003C4030403C00449D
:1033700028102844001CA0A0A07C004464544C44A5
:103380000000087F41000000007F00000000417F36
:103390000800000804081008EFBC8C0000000000C2
:1033A000000000000000000000000000000058388D
:1033B000000000000000000000000000E380820028
:1033C00000000000000000000000000000000000FD
:1033D0000000182424180000000000000000000075
:1033E000E4BDA000008060F8074020180F08C8085E
:1033F00008281800010000FF00100C0340807F0027
:1034000001061800E5A5BD001010F01F10F00080A7
:103410008282E2928A8680004022150816610000AE
:1034200040807F0000000000E4B89600202020FECD
:103430002020FF202020FF20202020000000007FEF
:10344000404047444444474040400000E7958C00DA
:10345000000000FE929292FE929292FE0000000006
:1034600008080484621E010001FE0204040808002A
:1034700000000000FF0101013109090909897101FA
:10348000010101FFFF8080808080809681808080A4
:10349000808080FFFF01818181FD8991A1C1FD8133
:1034A000818101FFFF808080809F888482819F804E
:1034B000808080FFFFFFFFFFFFFFFFFFFFFFFFFF99
:1034C000FFFFFFFFFFFFFFFFFFFFFFFFFFFFFFFF0C
:1034D000FFFFFFFFFFFFFFFFFFFFFFFFFFFFFFFFFC
:1034E000FFFFFFFFFFFFFFFFFFFFFFFFFFFFFFFFEC
:1034F000FFFFFFFFFFFFFFFFFFFFFFFFFFFFFFFFDC
:10350000FFFFFFFFFFFFFFFFFFFFFFFFFFFFFFFFCB
:10351000FFFFFFFFFFFFFFFFFFFFFFFFFFFFFFFFBB
:10352000FFFFFFFFFFFFFFFFFFFFFFFFFFFFFFFFAB
:10353000FFFFFFFFFFFFFFFFFFFFFFFFFFFFFFFF9B
:10354000FFFFFFFFFFFFFFFFFFFFFFFFFFFFFFFF8B
:10355000FFFFFFFFFFFFFFFFFFFFFFFFFFFFFFFF7B
:10356000FFFFFFFFFFFFFFFFFFFFFFFFFFFFFFFF6B
:10357000FFFFFFFFFFFFFFFFFFFFFFFFFFFFFFFF5B
:10358000FFFFFFFFFFFFFFFFFFFFFFFFFFFFFFFF4B
:10359000FFFFFFFFFFFFFFFFFFFFFFFFFFFFFFFF3B
:1035A000FFFFFFFFFFFFFFFFFFFFFFFFFFFFFFFF2B
:1035B000FFFFFFFFFFFFFFFFFFFFFFFFFFFFFFFF1B
:1035C000FFFFFFFFFFFFFFFFFFFFFFFFFFFFFF0307
:1035D00003030303030303030303030303030303BB
:1035E00003030303030303030303030303FFFFFFB7
:1035F000FFFFFFFFFFFFFFFFFFFF030303030303C3
:10360000030303030303030303030303030303038A
:103610000303030303030303FFFFFFFFFFFFFFFF9A
:10362000FFFFFFFFFFFFFFFFFFFFFFFFFFFFFFFFAA
:10363000FFFFFFFFFFFFFFFFFFFFFFFFFFFFFFFF9A
:10364000FFFFFFFFFFFFFFFFFFFFFFFFFFFFFFFF8A
:10365000FEFCF8F0C0800000000000000000000048
:103660000000000000000000000080E0F0FFFFFF0D
:10367000FFFFFFFFFFFFFFFFFFFFF0E08000000004
:10368000000000000000000000000000000000003A
:103690000080E0F0F8FCFEFFFFFFFFFFFFFFFFFFF1
:1036A000FFFFFFFFFFFFFFFFFFFFFFFFFFFFFFFF2A
:1036B000FFFFFFFFFFFFFFFFFFFFFFFFFFFFFFFF1A
:1036C000FFFFFFFFFFFFFFFFFFFFFFFFFFFFFFFF0A
:1036D000FFFFFFFFFFFFFFFEFEFCFCFCF8F8F0E041
:1036E000E0E0E0F0F0F8FCFCFEFFFFFFFFFFFFFF73
:1036F000FFFFFFFFFFFFFFFFFFFFFFFFFFFFFEFCDE
:10370000FCF8F0F0E0E0E0E0F0F8F8FCFCFCFCFE97
:10371000FEFFFFFFFFFFFFFFFFFFFFFFFFFFFFFFBA
:10372000FFFFFFFFFFFFFFFFFFFFFFFFFFFFFFFFA9
:10373000FFFFFFFFFFFFFFFFFFFFFFFFFFFFFFFF99
:10374000FFFFFFFFFFFFFFFFFFFFFFFFFFFFFFFF89
:10375000FFFFFFFFFFFFFFFFFFFFFFFFFFFFFFFF79
:10376000FFFFFFFFFFFFFFFFFFFFFFFFFFFFFFFF69
:10377000FFFFFFFFFFFFFFFFFFFFFFFFFFFFFFFF59
:10378000FFFFFFFFFFFFFFFFFFFFFFFFFFFFFFFF49
:10379000FFFFFFFFFFFFFFFFFFFFFFFFFFFFFFFF39
:1037A000FFFFFFFFFFFFFFFFFFFFFFFFFFFFFFFF29
:1037B000FFFFFFFFFFFFFFFFFFFFFFFFFFFFFFFF19
:1037C000FFFFFFFFFFFFFFFFFFFFFFFFFFFFFFFF09
:1037D000FFFFFFFFFFFFFFFFFFFFFFFFFFFFFFFFF9
:1037E000FFFFFFFFFFFFFFFFFFFFFFFFFFFFFFFFE9
:1037F000FFFFFFFFFFFFFFFFFFFFFFFFFFFFFFFFD9
:10380000FFFFFFFFFFFFFFFFFFFFFFFFFFFFFFFFC8
:10381000FFFFFFFFFFFFFFFFFFFFFFFFFFFFFFFFB8
:10382000FFFFFFFFFFFFFFFFFFFFFFFFFFFFFFFFA8
:10383000FFFFFFFFFFFFFFFFFFFFFFFFFFFFFFFF98
:10384000FFFFFFFFFFFFFFFFFFFFFFFFFFFFFFFF88
:10385000FFFFFFFFFFFFFFFFFFFFFFFFFFFFFFFF78
:10386000FFFFFFFFFFFFFFFFFFFFFFFFFFFFFFFF68
:10387000FFFFFFFFFFFFFFFFFFFFFFFFFFFFFFFF58
:10388000FFFFFFFFFFFFFFFFFFFFFFFFFFFFFFFF48
:10389000FFFFFFFFFFFFFFFFFFFFFFFFFFFFFFFF38
:1038A000FFFFFFFFFFFFFFFFFFFFFFFFFFFFFFFF28
:1038B000FFFFFFFF0000000000000000000000000C
:1038C00000000000000000000000000000000000F8
:1038D00000000000000000000000000000000000E8
:1038E00000000000000000000000000000000000D8
:1038F00000000000000000000000000000000000C8
:1039000000000000000000000000000000000000B7
:1039100000000000000000000000000000000000A7
:103920000000000000000000000000000000000097
:103930000000000000000000000000000000000087
:103940000000000000000000000000000000000077
:103950000000000000000000000000000000000067
:103960000000000000000000000000000000000057
:103970000000000000000000000000000000000047
:103980000000000000000000000000000000000037
:103990000000000000000000000000000000000027
:1039A0000000000000000000000000000000000017
:1039B0000000000000000000000000000000000007
:1039C00000000000FFFFFFFFFFFFFFFFFFFFFFFF03
:1039D000FFFFFFFFFFFFFFFFFFFFFFFFFFFFFFFFF7
:1039E000FFFFFFFFFFFFFFFFFFFFFFFF00000000E3
:1039F000000000000000000000000000FFFFFFFFCB
:103A0000FFFFFFFFFFFFFFFFFFFFFFFFFFFFFFFFC6
:103A1000FFFFFFFFFFFFFFFFFFFFFFFFFFFFFFFFB6
:103A2000FFFFFFFF0000000000000000000000009A
:103A30000000000000000000000000000000000086
:103A400000000000FFFFFFFFFFFFFFFFFFFFFFFF82
:103A5000FFFFFFFFFFFFFFFFFFFFFFFFFFFFFFFF76
:103A6000FFFFFFFFFFFFFFFFFFFFFFFF0000000062
:103A7000000000000000000000000000FFFFFFFF4A
:103A8000FFFFFFFFFFFFFFFFFFFFFFFFFFFFFFFF46
:103A9000FFFFFFFFFFFFFFFFFFFFFFFFFFFFFFFF36
:103AA000FFFFFFFF0000000000000000000000001A
:103AB0000000000000000000000000000000000006
:103AC00000000000FFFFFFFFFFFFFFFFFFFFFFFF02
:103AD000FFFFFFFFFFFFFFFFFFFFFFFFFFFFFFFFF6
:103AE000FFFFFFFFFFFFFFFFFFFFFFFF00000000E2
:103AF000000000000000000000000000FFFFFFFFCA
:103B0000FFFFFFFFFFFFFFFFFFFFFFFFFFFFFFFFC5
:103B1000FFFFFFFFFFFFFFFFFFFFFFFFFFFFFFFFB5
:103B2000FFFFFFFF00000000000000000000000099
:103B30000000000000000000000000000000000085
:103B40000000000000000000000000000000000075
:103B50000000000000000000000000000000000065
:103B60000000000000000000000000000000000055
:103E30000000000000000000FCFEFFFFFFFFFFFF8E
:103E4000FFFFFFFFFFFFFFFEFEFCFCFCFCFCF8F8A1
:103E5000F0F0F0F0C0C0C0808080000000000000E2
:103E60000000000000000000000000000000000052
:103E70000000000000000000000000000000000042
:103E80000000000000000000000000000000808032
:103E900080C0C0C0F0F0F0F0F8F8FCFCFCFCFCFEC8
:103EA000FEFFFFFFFFFFFFFFFFFFFFFFFFFFFEFC27
:103EB0000000000000000000000103070F1F3F7F0B
:103EC000FFFFFFFFFFFFFFFFFFFFFFFFFFFFFFFF02
:103ED000FFFFFFFFFFFFFFFFFFFFFFFFFFFFFEFEF4
:103EE000FEFCFCFCFCF8F8F8F0E0E0C0000000008C
:103EF000000000000000000000000000C0E0E0F052
:103F0000F8F8F8FCFCFCFCFEFEFEFFFFFFFFFFFFE5
:103F1000FFFFFFFFFFFFFFFFFFFFFFFFFFFFFFFFB1
:103F2000FFFFFFFFFFFFFFFF7F3F1F0F07030100A2
:103F30000000000000000000000000000000000081
:103F40000001010101010101010101010101010162
:103F50000101010101010101010101010101010151
:103F60000101010101010101010101010000000045
:103F7000000000000000000000000000010101013D
:103F80000101010101010101010101010101010121
:103F90000101010101010101010101010101010111
:103FA000010101010101010000000000000000000A
:103FB0000000000000000000000000000000000001
:103FC00000000000000000000000000000000000F1
:103FD00000000000000000000000000000000000E1
:103FE00000000000000000000000000000000000D1
:1041C000000000000000000000000000C0C0C0C0EF
:1041D000C0C0C0C0C0C0C0C0C0C0C0C0C0C0C0C0DF
:1041E000C0C0C04040C0C00000000000000000008F
:1041F00000000000000000000000000000000000BF
:1042000000C0C04040C0C0C0C0C0C0C0C0C0C0C06E
:10421000C0C0C0C0C0C0C0C0C0C0C0C0000000009E
:10422000000000000000000000000000000000008E
:10423000000000000000000000000000000000007E
:10424000000000000000000000000000FFFF7F7F72
:10425000FFFFFF7F7F3F1F0B0303030303030303E2
:104260000383E1F1F9F8FDFEF80000000000000012
:10427000000000000000000000000000000000F846
:10428000FEFDF8F9F1E183030303030303030303D2
:104290000B1F3F7F7FFFFFFF7F7FFFFF00000000BE
:1042A000000000000000000000000000000000000E
:1042B00000000000000000000000000000000000FE
:1042C0000000000000000000000000000087B8BCF3
:1042D0007C7EFEFEFEFEFCF8F0C000000000000048
:1042E000FCFFFFFFFFFF7F1F010000000000000038
:1042F00000000000000000000000000000000001BD
:104300001F7FFFFFFFFFFFFC000000000000C0F068
:10431000F8FCFEFEFEFE7E7CBCB8870000000000BC
:10432000000000000000000000000000000000008D
:10433000000000000000000000000000000000007D
:104340000000000000000000183E3E7F7F7FFFFF5E
:10435000FF7F3E1D030F0F0F0F0B0808080874F4B2
:10436000F4F7FBFDFDFEFC00000000000000000073
:10437000000000000000000000000000000000003D
:1043800000FCFEFDFDFBF7F4F474080808080B0FB1
:104390000F0F0F031D3E7FFFFFFF7F7F7F3E3E1805
:1043A000000000000000000000000000000000000D
:1043B00000000000000000000000000000000000FD
:1043C0000000000000000000000000000000FFFFEF
:1043D0003F0000000000000000000000000000009E
:1043E00000000000000000000000000000000000CD
:1043F00000000000000000000000000000000000BD
:1044000000000000000000000000000000000000AC
:10441000000000000000003FFFFF0000000000005F
:10442000000000000000000000000000000000008C
:10443000000000000000000000000000000000007C
:104440000000000000000000000000000000FF3F2E
:10445000000000000000000000000000000000005C
:104460000000000000000000000000000000000448
:104470000602010101010206040000000000000024
:10448000000000000000000000000000000000002C
:1044900000000000000000003FFF000000000000DE
:1044A000000000000000000000000000000000000C
:1044B00000000000000000000000000000000000FC
:1044C00000000000000000000000000000000000EC
:1044D00000000000000000000000000000000000DC
:1047400000000000000000000000000C1E1E3E3EA5
:104750007E7E7E7E7C7C7C7CFCFCFCFCFCFCFCFC91
:10476000FCFCFCFE7E7E7E7E7C3C3C10000000005B
:10477000000000000000000000000000103C3C7C35
:104780007E7E7E7EFEFCFCFCFCFCFCFCFCFCFCFC5F
:104790007C7C7C7C7E7E7E7E3E3E1E1E0C0000006D
:1047A0000000000000000000000000000000000009
:1047B00000000000000000000000000000000000F9
:1047C00000000000000000000000000000000000E9
:1047D00000000000000000000000000000000000D9
:1047E00000000000000000000000000000000000C9
:1047F00000000000000000000000000000000000B9
:1048000000000000000000000000000000000000A8
:104810000000000000000000000000000000000098
:104820000000000000000000000000000000000088
:104830000000000000000000000000000000000078
:104840000000000000000000000000000000000068
:104850000000000000000000000000000000000058
:104860000000000000000000000000000000000048
:104870000000000000000000000000000000000038
:104880000000000000000000000000000000000028
:104890000000000000000000000000000000000018
:1048A0000000000000000000000000000000000008
:1048B00000000000000000000000000000000000F8
:1048C00000000000000000000000000000000000E8
:1048D00000000000000000000000000000000000D8
:1048E00000000000000000000000000000000000C8
:1048F00000000000000000000000000000000000B8
:1049000000000000000000000000000000000000A7
:104910000000000000000000000000000000000097
:104920000000000000000000000000000000000087
:104930000000000000000000000000000000000077
:104940000000000000000000000000000000000067
:1049500000008080800000000000000000000000D7
:104960000000000000000000000000000000000047
:104970000000000000000000000000000000000037
:104980000000000000000000000000000000000027
:104990000000000080808000000000000000000097
:1049A0000000000000000000000000000000000007
:1049B00000000000000000000000000000000000F7
:1049C00000000000000000000000000000F0F8FE01
:1049D000FFFFFFFFFFFFFFFEF8F0000000000000F8
:1049E00000000000000000000000000000000000C7
:1049F00000000000000000000000000000000000B7
:104A0000000000000000000000000000000000F0B6
:104A1000F8FEFFFFFFFFFFFFFFFEF8F000000000C1
:104A20000000000000000000000000000000000086
:104A30000000000000000000000000000000000076
:104A400000000000000000000000000000FFFFFF69
:104A5000FFFFFFFFFFFFFFFFFFFF00000000000060
:104A60000000000000000000000000000000000046
:104A70000000000000000000000000000000000036
:104A8000000000000000000000000000000000FF27
:104A9000FFFFFFFFFFFFFFFFFFFFFFFF0000000022
:104AA0000000000000000000000000000000000006
:104AB00000000000000000000000000000000000F6
:104AC00000000000000000000000000000FFFFFFE9
:104AD000FFFFFFFFFFFFFFFFFFFF000000000000E0
:104AE00000000000000000000000000000000000C6
:104AF00000000000000000000000000000000000B6
:104B0000000000000000000000000000000000FFA6
:104B1000FFFFFFFFFFFFFFFFFFFFFFFF00000000A1
:104B20000000000000000000000000000000000085
:104B30000000000000000000000000000000000075
:104B4000000000000000000000000000001F3FFF08
:104B5000FFFFFFFFFFFFFFFF3F1F000000000000FF
:104B60000000000000000000000000000000000045
:104B70000000000000000000000000000000000035
:104B80000000000000000000000000000000001F06
:104B90003FFFFFFFFFFFFFFFFFFF3F1F0000000081
:104BA0000000000000000000000000000000000005
:104BB00000000000000000000000000000000000F5
:104BC00000000000000000000000000000000000E5
:104BD00001010303030101000000000000000000C8
:104BE00000000000000000000000000000000000C5
:104BF00000000000000000000000000000000000B5
:104C000000000000000000000000000000000000A4
:104C10000000010103030301010000000000000087
:104C20000000000000000000000000000000000084
:104C30000000000000000000000000000000000074
:104C40000000000000000000000000000000000064
:104C50000000000000000000000000000000000054
:104C60000000000000000000000000000000000044
:104C70000000000000000000000000000000000034
:104C80000000000000000000000000000000000024
:104C90000000000000000000000000000000000014
:104CA0000000000000000000000000000000000004
:104CB00000000000000000000000000000000000F4
:104CC00000000000000000000000000000000000E4
:104CD00000000000000000000000000000000000D4
:104CE00000000000000000000000000000000000C4
:104CF00000000000000000000000000000000000B4
:104D000000000000000000000000000000000000A3
:104D10000000000000000000000000000000000093
:104D20000000000000000000000000000000000083
:104D30000000000000000000000000000000000073
:104D40000000000000000000000000000000000063
:104D5000000000000000000000000000000080C013
:104D6000C0C08080000000000000000000000000C3
:104D70000000000000000000000000000000000033
:104D80000000000000000000000000000000000023
:104D9000000000000000000000000000000080C0D3
:104DA000C0C0808000000000000000000000000083
:104DB00000000000000000000000000000000000F3
:104DC00000000000000000000000000000000000E3
:104DD00000000000000000000000000000FEFFFFD7
:104DE000FFFFFFFFFFFFE0000000000000000000E9
:104DF00000000000000000000000000000000000B3
:104E000000000000000000000000000000000000A2
:104E100000000000000000000000000000FEFFFF96
:104E2000FFFFFFFFFFFFE0000000000000000000A8
:104E30000000000000000000000000000000000072
:104E40000000000000000000000000000000000062
:104E500000000000000000000000000000FFFFFF55
:104E6000FFFFFFFFFFFFFFFF00000000000000004A
:104E70000000000000000000000000000000000032
:104E80000000000000000000000000000000000022
:104E900000000000000000000000000000FFFFFF15
:104EA000FFFFFFFFFFFFFFFF00000000000000000A
:104EB00000000000000000000000000000000000F2
:104EC00000000000000000000000000000000000E2
:104ED00000000000000000000000000000FFFFFFD5
:104EE000FFFFFFFFFFFFFFFF0000000000000000CA
:104EF00000000000000000000000000000000000B2
:104F000000000000000000000000000000000000A1
:104F100000000000000000000000000000FFFFFF94
:104F2000FFFFFFFFFFFFFFFF000000000000000089
:104F30000000000000000000000000000000000071
:104F40000000000000000000000000000000000061
:104F5000000000000000000000000000007FFFFFD4
:104F6000FFFFFFFFFFFF0700000000000000000040
:104F70000000000000000000000000000000000031
:104F80000000000000000000000000000000000021
:104F9000000000000000000000000000007FFFFF94
:104FA000FFFFFFFFFFFF0700000000000000000000
:104FB00000000000000000000000000000000000F1
:104FC00000000000000000000000000000000000E1
:104FD00000000000000000000000000000000103CD
:104FE00003030101000000000000000000000000B9
:104FF00000000000000000000000000000000000B1
:1050000000000000000000000000000000000000A0
:10501000000000000000000000000000000001038C
:105020000303010100000000000000000000000078
:105030000000000000000000000000000000000070
:105040000000000000000000000000000000000060
:105050000000000000000000000000000000000050
:105060000000000000000000000000000000000040
:105070000000000000000000000000000000000030
:105080000000000000000000000000000000000020
:105090000000000000000000000000000000000010
:1050A0000000000000000000000000000000000000
:1050B00000000000000000000000000000000000F0
:1050C00000000000000000000000000000000000E0
:1050D00000000000000000000000000000000000D0
:1050E00000000000000000000000000000000000C0
:1050F00000000000000000000000000000000000B0
:10510000000000000000000000000000000000009F
:10511000000000000000000000000000000000008F
:10512000000000000000000000000000000000007F
:10513000000000000000000000000000000000006F
:10514000000000008080C0C0C0800000000000009F
:10515000000000000000000000000000000000004F
:10516000000000000000000000000000000000003F
:10517000000000000000000000000000000000002F
:10518000000000008080C0C0C0800000000000005F
:10519000000000000000000000000000000000000F
:1051A00000000000000000000000000000000000FF
:1051B00000000000000000000000000000000000EF
:1051C00000E0FFFFFFFFFFFFFFFFFE000000000009
:1051D00000000000000000000000000000000000CF
:1051E00000000000000000000000000000000000BF
:1051F00000000000000000000000000000000000AF
:1052000000E0FFFFFFFFFFFFFFFFFE0000000000C8
:10521000000000000000000000000000000000008E
:10522000000000000000000000000000000000007E
:10523000000000000000000000000000000000006E
:10524000FFFFFFFFFFFFFFFFFFFFFF000000000069
:10525000000000000000000000000000000000004E
:10526000000000000000000000000000000000003E
:10527000000000000000000000000000000000002E
:10528000FFFFFFFFFFFFFFFFFFFFFF000000000029
:10529000000000000000000000000000000000000E
:1052A00000000000000000000000000000000000FE
:1052B00000000000000000000000000000000000EE
:1052C000FFFFFFFFFFFFFFFFFFFFFF0000000000E9
:1052D00000000000000000000000000000000000CE
:1052E00000000000000000000000000000000000BE
:1052F00000000000000000000000000000000000AE
:10530000FFFFFFFFFFFFFFFFFFFFFF0000000000A8
:10531000000000000000000000000000000000008D
:10532000000000000000000000000000000000007D
:10533000000000000000000000000000000000006D
:105340000007FFFFFFFFFFFFFFFF7F0000000000DF
:10535000000000000000000000000000000000004D
:10536000000000000000000000000000000000003D
:10537000000000000000000000000000000000002D
:105380000007FFFFFFFFFFFFFFFF7F00000000009F
:10539000000000000000000000000000000000000D
:1053A00000000000000000000000000000000000FD
:1053B00000000000000000000000000000000000ED
:1053C00000000000010103030301000000000000D1
:1053D00000000000000000000000000000000000CD
:1053E00000000000000000000000000000000000BD
:1053F00000000000000000000000000000000000AD
:105400000000000001010303030100000000000090
:10541000000000000000000000000000000000008C
:10542000000000000000000000000000000000007C
:10543000000000000000000000000000000000006C
:10544000000000000000000000000000000000005C
:10545000000000000000000000000000000000004C
:10546000000000000000000000000000000000003C
:10547000000000000000000000000000000000002C
:10548000000000000000000000000000000000001C
:10549000000000000000000000000000000000000C
:1054A00000000000000000000000000000000000FC
:1054B00000000000000000000000000000000000EC
:1054C00000000000000000000000000000000000DC
:1054D00000000000000000000000000000000000CC
:1054E00000000000000000000000000000000000BC
:1054F00000000000000000000000000000000000AC
:10550000000000000000000000000000000000009B
:10551000000000000000000000000000000000008B
:10552000000000000000000000000000000000007B
:10553000000000000000000000000000000000006B
:10554000000000000000000000000000000000005B
:10555000000000000000000000000000000000004B
:10556000000000000000000000000000000000003B
:10557000000000000000000000000000000000002B
:10558000000000000000000000000000000000001B
:10559000000000000000000000000000000000000B
:1055A00000000000000000000000000000000000FB
:1055B000000000000000000000000000008080806B
:1055C00080C0C0C0E0E0E0F0F0F0F0F8F8F8F8F8E3
:1055D000FCFCFCFCFCFCFCFCFCFEFEFEFEFECECE5D
:1055E000CECE868282000000000000000000000095
:1055F00000000000000000000000000000000000AB
:10560000000000828286CECECECEFEFEFEFEFEFCE6
:10561000FCFCFCFCFCFCFCFCF8F8F8F8F8F0F0F002
:10562000F0E0E0E0C0C0C0808080800000000000AA
:10563000000000000000000000003039393F7F7F8B
:10564000FFFFFFFFFFFFFFFFFFFFFFFFFFFFFFFF6A
:10565000FFFFFFFFFFFFFFFFFFFFFF7F7F7F4D4D3E
:105660000D0D090000000000000000000000000017
:10567000000000000000000000000000000000002A
:105680000000000000090D0D4D4D7F7F7FFFFFFFE3
:10569000FFFFFFFFFFFFFFFFFFFFFFFFFFFFFFFF1A
:1056A000FFFFFFFFFFFFFFFF7F7F3F393930000023
:1056B00000000000000000000000000000000000EA
:1056C00000000000000000000000000000000000DA
:1056D00000000000000000000000000000000000CA
:1056E00000000000000000000000000000000000BA
:1056F00000000000000000000000000000000000AA
:105700000000000000000000000000000000000099
:105710000000000000000000000000000000000089
:105720000000000000000000000000000000000079
:105730000000000000000000000000000000000069
:105740000000000000000000000000000000000059
:105750000000000000000000000000000000000049
:10576000000000000000000000000000083868C8C9
:105770008808080808080888C86838080000000079
:105780000000000000000000000000000000000019
:105790000000000000000000000000000000000009
:1057A00000000000000000000000000000000000F9
:1057B00000000000000000000000000000000000E9
:1057C00000000000000000000000000000000000D9
:1057D00000000000000000000000000000000000C9
:1057E00000000000000000000000000000000000B9
:1057F000010306040406030100000000000000008D
:105800000000000000000000000000000000000098
:105810000000000000000000000000000000000088
:105820000000000000000000000000000000000078
:105830000000000000000000000000000000000068
:105840000000000000000000000000000000000058
:105850000000000000000000000000000000000048
:105860000000000000000000000000000000000038
:105870000000000000000000000000000000000028
:105880000000000000000000000000000000000018
:105890000000000000000000000000000000000008
:1058A00000000000000000000000000000000000F8
:1058B00000000000D4580008000000203000000064
:1058C000280100080459000830000020280B0000BF
:1058D0004401000800000000010203040102030467
:1058E000060708090204060801010101010101017E
:1058F00001010100000000000000000000000000A5
:0459000000000000A3
:04000005080000ED02
:00000001FF
